{
  "_format": "hh-sol-artifact-1",
  "contractName": "Wallet",
  "sourceName": "contracts/Wallet.sol",
  "abi": [
    {
      "inputs": [],
      "stateMutability": "nonpayable",
      "type": "constructor"
    },
    {
      "anonymous": false,
      "inputs": [
        {
          "indexed": false,
          "internalType": "address",
          "name": "user",
          "type": "address"
        },
        {
          "indexed": false,
          "internalType": "uint256",
          "name": "amount",
          "type": "uint256"
        }
      ],
      "name": "Deposit",
      "type": "event"
    },
    {
      "anonymous": false,
      "inputs": [
        {
          "indexed": false,
          "internalType": "address",
          "name": "user",
          "type": "address"
        }
      ],
      "name": "WithdrawAll",
      "type": "event"
    },
    {
      "inputs": [
        {
          "internalType": "address",
          "name": "",
          "type": "address"
        }
      ],
      "name": "balances",
      "outputs": [
        {
          "internalType": "uint256",
          "name": "",
          "type": "uint256"
        }
      ],
      "stateMutability": "view",
      "type": "function"
    },
    {
      "inputs": [
        {
          "internalType": "address",
          "name": "user",
          "type": "address"
        },
        {
          "internalType": "uint256",
          "name": "amount",
          "type": "uint256"
        }
      ],
      "name": "deposit",
      "outputs": [],
      "stateMutability": "nonpayable",
      "type": "function"
    },
    {
      "inputs": [
        {
          "internalType": "address",
          "name": "user",
          "type": "address"
        }
      ],
      "name": "getBalance",
      "outputs": [
        {
          "internalType": "uint256",
          "name": "",
          "type": "uint256"
        }
      ],
      "stateMutability": "view",
      "type": "function"
    },
    {
      "inputs": [],
      "name": "owner",
      "outputs": [
        {
          "internalType": "address",
          "name": "",
          "type": "address"
        }
      ],
      "stateMutability": "view",
      "type": "function"
    },
    {
      "inputs": [
        {
          "internalType": "address",
          "name": "user",
          "type": "address"
        }
      ],
      "name": "withdrawAll",
      "outputs": [],
      "stateMutability": "nonpayable",
      "type": "function"
    }
  ],
  "bytecode": "0x608060405234801561001057600080fd5b5033600160006101000a81548173ffffffffffffffffffffffffffffffffffffffff021916908373ffffffffffffffffffffffffffffffffffffffff160217905550610687806100616000396000f3fe608060405234801561001057600080fd5b50600436106100575760003560e01c806327e235e31461005c57806347e7ef241461008c5780638da5cb5b146100a8578063f8b2cb4f146100c6578063fa09e630146100f6575b600080fd5b6100766004803603810190610071919061042b565b610112565b6040516100839190610471565b60405180910390f35b6100a660048036038101906100a191906104b8565b61012a565b005b6100b061024c565b6040516100bd9190610507565b60405180910390f35b6100e060048036038101906100db919061042b565b610272565b6040516100ed9190610471565b60405180910390f35b610110600480360381019061010b919061042b565b6102ba565b005b60006020528060005260406000206000915090505481565b600160009054906101000a900473ffffffffffffffffffffffffffffffffffffffff1673ffffffffffffffffffffffffffffffffffffffff163373ffffffffffffffffffffffffffffffffffffffff16146101ba576040517f08c379a00000000000000000000000000000000000000000000000000000000081526004016101b1906105a5565b60405180910390fd5b7fe1fffcc4923d04b559f4d29a8bfc6cda04eb5b0d3c460751c2402c5c5cc9109c82826040516101eb9291906105c5565b60405180910390a1806000808473ffffffffffffffffffffffffffffffffffffffff1673ffffffffffffffffffffffffffffffffffffffff1681526020019081526020016000206000828254610241919061061d565b925050819055505050565b600160009054906101000a900473ffffffffffffffffffffffffffffffffffffffff1681565b60008060008373ffffffffffffffffffffffffffffffffffffffff1673ffffffffffffffffffffffffffffffffffffffff168152602001908152602001600020549050919050565b600160009054906101000a900473ffffffffffffffffffffffffffffffffffffffff1673ffffffffffffffffffffffffffffffffffffffff163373ffffffffffffffffffffffffffffffffffffffff161461034a576040517f08c379a0000000000000000000000000000000000000000000000000000000008152600401610341906105a5565b60405180910390fd5b7f2b3ede1cd1dfcbe081c86c4381460612351a278070aef7f89dad40e805fda5ab816040516103799190610507565b60405180910390a160008060008373ffffffffffffffffffffffffffffffffffffffff1673ffffffffffffffffffffffffffffffffffffffff1681526020019081526020016000208190555050565b600080fd5b600073ffffffffffffffffffffffffffffffffffffffff82169050919050565b60006103f8826103cd565b9050919050565b610408816103ed565b811461041357600080fd5b50565b600081359050610425816103ff565b92915050565b600060208284031215610441576104406103c8565b5b600061044f84828501610416565b91505092915050565b6000819050919050565b61046b81610458565b82525050565b60006020820190506104866000830184610462565b92915050565b61049581610458565b81146104a057600080fd5b50565b6000813590506104b28161048c565b92915050565b600080604083850312156104cf576104ce6103c8565b5b60006104dd85828601610416565b92505060206104ee858286016104a3565b9150509250929050565b610501816103ed565b82525050565b600060208201905061051c60008301846104f8565b92915050565b600082825260208201905092915050565b7f4f6e6c792074686520636f6e7472616374206f776e65722063616e20696e766f60008201527f6b6520746869732066756e6374696f6e2e000000000000000000000000000000602082015250565b600061058f603183610522565b915061059a82610533565b604082019050919050565b600060208201905081810360008301526105be81610582565b9050919050565b60006040820190506105da60008301856104f8565b6105e76020830184610462565b9392505050565b7f4e487b7100000000000000000000000000000000000000000000000000000000600052601160045260246000fd5b600061062882610458565b915061063383610458565b925082820190508082111561064b5761064a6105ee565b5b9291505056fea264697066735822122019d277c9d9352cbff728f1d940ddc94d58f7258d41754d0f06e60cff26067e4164736f6c63430008180033",
  "linkReferences": {},
  "deployedLinkReferences": {}
}